{
  "_format": "hh-sol-artifact-1",
  "contractName": "Airdrop",
  "sourceName": "contracts/Airdrop.sol",
  "abi": [
    {
      "inputs": [
        {
          "internalType": "address",
          "name": "_token",
          "type": "address"
        }
      ],
      "stateMutability": "nonpayable",
      "type": "constructor"
    },
    {
      "inputs": [
        {
          "internalType": "address",
          "name": "owner",
          "type": "address"
        }
      ],
      "name": "OwnableInvalidOwner",
      "type": "error"
    },
    {
      "inputs": [
        {
          "internalType": "address",
          "name": "account",
          "type": "address"
        }
      ],
      "name": "OwnableUnauthorizedAccount",
      "type": "error"
    },
    {
      "anonymous": false,
      "inputs": [
        {
          "indexed": true,
          "internalType": "address",
          "name": "user",
          "type": "address"
        },
        {
          "indexed": false,
          "internalType": "uint256",
          "name": "amount",
          "type": "uint256"
        }
      ],
      "name": "AirdropClaimed",
      "type": "event"
    },
    {
      "anonymous": false,
      "inputs": [
        {
          "indexed": true,
          "internalType": "address",
          "name": "previousOwner",
          "type": "address"
        },
        {
          "indexed": true,
          "internalType": "address",
          "name": "newOwner",
          "type": "address"
        }
      ],
      "name": "OwnershipTransferred",
      "type": "event"
    },
    {
      "anonymous": false,
      "inputs": [
        {
          "indexed": true,
          "internalType": "address",
          "name": "user",
          "type": "address"
        },
        {
          "indexed": false,
          "internalType": "uint256",
          "name": "taskId",
          "type": "uint256"
        }
      ],
      "name": "TaskCompleted",
      "type": "event"
    },
    {
      "anonymous": false,
      "inputs": [
        {
          "indexed": true,
          "internalType": "address",
          "name": "user",
          "type": "address"
        }
      ],
      "name": "Whitelisted",
      "type": "event"
    },
    {
      "inputs": [
        {
          "internalType": "address[]",
          "name": "users",
          "type": "address[]"
        }
      ],
      "name": "addToWhitelist",
      "outputs": [],
      "stateMutability": "nonpayable",
      "type": "function"
    },
    {
      "inputs": [
        {
          "internalType": "address",
          "name": "user",
          "type": "address"
        }
      ],
      "name": "checkBalance",
      "outputs": [
        {
          "internalType": "uint256",
          "name": "",
          "type": "uint256"
        }
      ],
      "stateMutability": "view",
      "type": "function"
    },
    {
      "inputs": [],
      "name": "claimAirdrop",
      "outputs": [],
      "stateMutability": "nonpayable",
      "type": "function"
    },
    {
      "inputs": [
        {
          "internalType": "uint256",
          "name": "taskId",
          "type": "uint256"
        }
      ],
      "name": "completeTask",
      "outputs": [],
      "stateMutability": "nonpayable",
      "type": "function"
    },
    {
      "inputs": [
        {
          "internalType": "address",
          "name": "",
          "type": "address"
        }
      ],
      "name": "hasClaimed",
      "outputs": [
        {
          "internalType": "bool",
          "name": "",
          "type": "bool"
        }
      ],
      "stateMutability": "view",
      "type": "function"
    },
    {
      "inputs": [],
      "name": "owner",
      "outputs": [
        {
          "internalType": "address",
          "name": "",
          "type": "address"
        }
      ],
      "stateMutability": "view",
      "type": "function"
    },
    {
      "inputs": [],
      "name": "renounceOwnership",
      "outputs": [],
      "stateMutability": "nonpayable",
      "type": "function"
    },
    {
      "inputs": [],
      "name": "rewardAmount",
      "outputs": [
        {
          "internalType": "uint256",
          "name": "",
          "type": "uint256"
        }
      ],
      "stateMutability": "view",
      "type": "function"
    },
    {
      "inputs": [
        {
          "internalType": "uint256",
          "name": "newAmount",
          "type": "uint256"
        }
      ],
      "name": "setRewardAmount",
      "outputs": [],
      "stateMutability": "nonpayable",
      "type": "function"
    },
    {
      "inputs": [
        {
          "internalType": "address",
          "name": "",
          "type": "address"
        }
      ],
      "name": "taskCompletions",
      "outputs": [
        {
          "internalType": "uint256",
          "name": "",
          "type": "uint256"
        }
      ],
      "stateMutability": "view",
      "type": "function"
    },
    {
      "inputs": [],
      "name": "token",
      "outputs": [
        {
          "internalType": "contract IERC20",
          "name": "",
          "type": "address"
        }
      ],
      "stateMutability": "view",
      "type": "function"
    },
    {
      "inputs": [
        {
          "internalType": "address",
          "name": "newOwner",
          "type": "address"
        }
      ],
      "name": "transferOwnership",
      "outputs": [],
      "stateMutability": "nonpayable",
      "type": "function"
    },
    {
      "inputs": [
        {
          "internalType": "address",
          "name": "",
          "type": "address"
        }
      ],
      "name": "whitelist",
      "outputs": [
        {
          "internalType": "bool",
          "name": "",
          "type": "bool"
        }
      ],
      "stateMutability": "view",
      "type": "function"
    },
    {
      "inputs": [
        {
          "internalType": "uint256",
          "name": "amount",
          "type": "uint256"
        }
      ],
      "name": "withdrawTokens",
      "outputs": [],
      "stateMutability": "nonpayable",
      "type": "function"
    }
  ],
  "bytecode": "0x608060405268056bc75e2d6310000060025534801561001d57600080fd5b5060405161148c38038061148c833981810160405281019061003f9190610230565b33600073ffffffffffffffffffffffffffffffffffffffff168173ffffffffffffffffffffffffffffffffffffffff16036100b25760006040517f1e4fbdf70000000000000000000000000000000000000000000000000000000081526004016100a9919061026c565b60405180910390fd5b6100c18161010960201b60201c565b5080600160006101000a81548173ffffffffffffffffffffffffffffffffffffffff021916908373ffffffffffffffffffffffffffffffffffffffff16021790555050610287565b60008060009054906101000a900473ffffffffffffffffffffffffffffffffffffffff169050816000806101000a81548173ffffffffffffffffffffffffffffffffffffffff021916908373ffffffffffffffffffffffffffffffffffffffff1602179055508173ffffffffffffffffffffffffffffffffffffffff168173ffffffffffffffffffffffffffffffffffffffff167f8be0079c531659141344cd1fd0a4f28419497f9722a3daafe3b4186f6b6457e060405160405180910390a35050565b600080fd5b600073ffffffffffffffffffffffffffffffffffffffff82169050919050565b60006101fd826101d2565b9050919050565b61020d816101f2565b811461021857600080fd5b50565b60008151905061022a81610204565b92915050565b600060208284031215610246576102456101cd565b5b60006102548482850161021b565b91505092915050565b610266816101f2565b82525050565b6000602082019050610281600083018461025d565b92915050565b6111f6806102966000396000f3fe608060405234801561001057600080fd5b50600436106100ea5760003560e01c80639b19251a1161008c578063f2fde38b11610066578063f2fde38b14610221578063f7b2a7be1461023d578063f9c421391461025b578063fc0c546a1461028b576100ea565b80639b19251a146101b9578063a8a65a78146101e9578063e1e2955814610205576100ea565b8063715018a6116100c8578063715018a61461014557806373b2e80e1461014f5780637f6497831461017f5780638da5cb5b1461019b576100ea565b8063315a095d146100ef5780635b88349d1461010b5780635f51522614610115575b600080fd5b61010960048036038101906101049190610c27565b6102a9565b005b61011361039a565b005b61012f600480360381019061012a9190610cb2565b61068f565b60405161013c9190610cee565b60405180910390f35b61014d610734565b005b61016960048036038101906101649190610cb2565b610748565b6040516101769190610d24565b60405180910390f35b61019960048036038101906101949190610da4565b610768565b005b6101a3610879565b6040516101b09190610e00565b60405180910390f35b6101d360048036038101906101ce9190610cb2565b6108a2565b6040516101e09190610d24565b60405180910390f35b61020360048036038101906101fe9190610c27565b6108c2565b005b61021f600480360381019061021a9190610c27565b6108d4565b005b61023b60048036038101906102369190610cb2565b6109ca565b005b610245610a50565b6040516102529190610cee565b60405180910390f35b61027560048036038101906102709190610cb2565b610a56565b6040516102829190610cee565b60405180910390f35b610293610a6e565b6040516102a09190610e7a565b60405180910390f35b6102b1610a94565b600160009054906101000a900473ffffffffffffffffffffffffffffffffffffffff1673ffffffffffffffffffffffffffffffffffffffff1663a9059cbb6102f7610879565b836040518363ffffffff1660e01b8152600401610315929190610e95565b6020604051808303816000875af1158015610334573d6000803e3d6000fd5b505050506040513d601f19601f820116820180604052508101906103589190610eea565b610397576040517f08c379a000000000000000000000000000000000000000000000000000000000815260040161038e90610f74565b60405180910390fd5b50565b600360003373ffffffffffffffffffffffffffffffffffffffff1673ffffffffffffffffffffffffffffffffffffffff16815260200190815260200160002060009054906101000a900460ff1615610427576040517f08c379a000000000000000000000000000000000000000000000000000000000815260040161041e90610fe0565b60405180910390fd5b6000600460003373ffffffffffffffffffffffffffffffffffffffff1673ffffffffffffffffffffffffffffffffffffffff16815260200190815260200160002060009054906101000a900460ff16806104c157506003600560003373ffffffffffffffffffffffffffffffffffffffff1673ffffffffffffffffffffffffffffffffffffffff1681526020019081526020016000205410155b905080610503576040517f08c379a00000000000000000000000000000000000000000000000000000000081526004016104fa9061104c565b60405180910390fd5b6001600360003373ffffffffffffffffffffffffffffffffffffffff1673ffffffffffffffffffffffffffffffffffffffff16815260200190815260200160002060006101000a81548160ff021916908315150217905550600160009054906101000a900473ffffffffffffffffffffffffffffffffffffffff1673ffffffffffffffffffffffffffffffffffffffff1663a9059cbb336002546040518363ffffffff1660e01b81526004016105ba929190610e95565b6020604051808303816000875af11580156105d9573d6000803e3d6000fd5b505050506040513d601f19601f820116820180604052508101906105fd9190610eea565b61063c576040517f08c379a000000000000000000000000000000000000000000000000000000000815260040161063390610f74565b60405180910390fd5b3373ffffffffffffffffffffffffffffffffffffffff167f650e45f04ef8a0c267b2f78d983913f69ae3a353b2b32de5429307522be0ab556002546040516106849190610cee565b60405180910390a250565b6000600160009054906101000a900473ffffffffffffffffffffffffffffffffffffffff1673ffffffffffffffffffffffffffffffffffffffff166370a08231836040518263ffffffff1660e01b81526004016106ec9190610e00565b602060405180830381865afa158015610709573d6000803e3d6000fd5b505050506040513d601f19601f8201168201806040525081019061072d9190611081565b9050919050565b61073c610a94565b6107466000610b1b565b565b60036020528060005260406000206000915054906101000a900460ff1681565b610770610a94565b60005b8282905081101561087457600160046000858585818110610797576107966110ae565b5b90506020020160208101906107ac9190610cb2565b73ffffffffffffffffffffffffffffffffffffffff1673ffffffffffffffffffffffffffffffffffffffff16815260200190815260200160002060006101000a81548160ff0219169083151502179055508282828181106108105761080f6110ae565b5b90506020020160208101906108259190610cb2565b73ffffffffffffffffffffffffffffffffffffffff167faab7954e9d246b167ef88aeddad35209ca2489d95a8aeb59e288d9b19fae5a5460405160405180910390a28080600101915050610773565b505050565b60008060009054906101000a900473ffffffffffffffffffffffffffffffffffffffff16905090565b60046020528060005260406000206000915054906101000a900460ff1681565b6108ca610a94565b8060028190555050565b6000811180156108e5575060038111155b610924576040517f08c379a000000000000000000000000000000000000000000000000000000000815260040161091b90611129565b60405180910390fd5b600560003373ffffffffffffffffffffffffffffffffffffffff1673ffffffffffffffffffffffffffffffffffffffff168152602001908152602001600020600081548092919061097490611178565b91905055503373ffffffffffffffffffffffffffffffffffffffff167ff684d89bb0f42287bf32838774e4b7f8a60c11804b3c6d1791fa55f306792643826040516109bf9190610cee565b60405180910390a250565b6109d2610a94565b600073ffffffffffffffffffffffffffffffffffffffff168173ffffffffffffffffffffffffffffffffffffffff1603610a445760006040517f1e4fbdf7000000000000000000000000000000000000000000000000000000008152600401610a3b9190610e00565b60405180910390fd5b610a4d81610b1b565b50565b60025481565b60056020528060005260406000206000915090505481565b600160009054906101000a900473ffffffffffffffffffffffffffffffffffffffff1681565b610a9c610bdf565b73ffffffffffffffffffffffffffffffffffffffff16610aba610879565b73ffffffffffffffffffffffffffffffffffffffff1614610b1957610add610bdf565b6040517f118cdaa7000000000000000000000000000000000000000000000000000000008152600401610b109190610e00565b60405180910390fd5b565b60008060009054906101000a900473ffffffffffffffffffffffffffffffffffffffff169050816000806101000a81548173ffffffffffffffffffffffffffffffffffffffff021916908373ffffffffffffffffffffffffffffffffffffffff1602179055508173ffffffffffffffffffffffffffffffffffffffff168173ffffffffffffffffffffffffffffffffffffffff167f8be0079c531659141344cd1fd0a4f28419497f9722a3daafe3b4186f6b6457e060405160405180910390a35050565b600033905090565b600080fd5b600080fd5b6000819050919050565b610c0481610bf1565b8114610c0f57600080fd5b50565b600081359050610c2181610bfb565b92915050565b600060208284031215610c3d57610c3c610be7565b5b6000610c4b84828501610c12565b91505092915050565b600073ffffffffffffffffffffffffffffffffffffffff82169050919050565b6000610c7f82610c54565b9050919050565b610c8f81610c74565b8114610c9a57600080fd5b50565b600081359050610cac81610c86565b92915050565b600060208284031215610cc857610cc7610be7565b5b6000610cd684828501610c9d565b91505092915050565b610ce881610bf1565b82525050565b6000602082019050610d036000830184610cdf565b92915050565b60008115159050919050565b610d1e81610d09565b82525050565b6000602082019050610d396000830184610d15565b92915050565b600080fd5b600080fd5b600080fd5b60008083601f840112610d6457610d63610d3f565b5b8235905067ffffffffffffffff811115610d8157610d80610d44565b5b602083019150836020820283011115610d9d57610d9c610d49565b5b9250929050565b60008060208385031215610dbb57610dba610be7565b5b600083013567ffffffffffffffff811115610dd957610dd8610bec565b5b610de585828601610d4e565b92509250509250929050565b610dfa81610c74565b82525050565b6000602082019050610e156000830184610df1565b92915050565b6000819050919050565b6000610e40610e3b610e3684610c54565b610e1b565b610c54565b9050919050565b6000610e5282610e25565b9050919050565b6000610e6482610e47565b9050919050565b610e7481610e59565b82525050565b6000602082019050610e8f6000830184610e6b565b92915050565b6000604082019050610eaa6000830185610df1565b610eb76020830184610cdf565b9392505050565b610ec781610d09565b8114610ed257600080fd5b50565b600081519050610ee481610ebe565b92915050565b600060208284031215610f0057610eff610be7565b5b6000610f0e84828501610ed5565b91505092915050565b600082825260208201905092915050565b7f5472616e73666572206661696c65640000000000000000000000000000000000600082015250565b6000610f5e600f83610f17565b9150610f6982610f28565b602082019050919050565b60006020820190508181036000830152610f8d81610f51565b9050919050565b7f416c726561647920636c61696d65640000000000000000000000000000000000600082015250565b6000610fca600f83610f17565b9150610fd582610f94565b602082019050919050565b60006020820190508181036000830152610ff981610fbd565b9050919050565b7f4e6f7420656c696769626c6520666f722061697264726f700000000000000000600082015250565b6000611036601883610f17565b915061104182611000565b602082019050919050565b6000602082019050818103600083015261106581611029565b9050919050565b60008151905061107b81610bfb565b92915050565b60006020828403121561109757611096610be7565b5b60006110a58482850161106c565b91505092915050565b7f4e487b7100000000000000000000000000000000000000000000000000000000600052603260045260246000fd5b7f496e76616c6964207461736b2049440000000000000000000000000000000000600082015250565b6000611113600f83610f17565b915061111e826110dd565b602082019050919050565b6000602082019050818103600083015261114281611106565b9050919050565b7f4e487b7100000000000000000000000000000000000000000000000000000000600052601160045260246000fd5b600061118382610bf1565b91507fffffffffffffffffffffffffffffffffffffffffffffffffffffffffffffffff82036111b5576111b4611149565b5b60018201905091905056fea264697066735822122042d328e40fe1ff1d3e256320339ac421061f624c4a361bb4b4c674760a0ef33764736f6c634300081c0033",
  "linkReferences": {},
  "deployedLinkReferences": {}
}